:0E08360000007F0D7E2D7DD6DDFEDEFCDFFA9C
:010844002291
:06087C0000007F01DFFE19
:010882002253
:080873007F0F7E5ADEFEDFFC60
:01087B00225A
:0E084500AD07AF051DEF600512087380F522A8
:09086900007F02E4FEDEFEDFFC6C
:010872002263
:0B08530075BA8090FE00E4F0F5BA22B8
:10071F001208531207FA75B0FF1201C112083612F0
:10072F0004D18F248E238D228C21E47FFAFEFDFCD1
:10073F00AB24AA23A922A821120370E4FBFA798023
:10074F00F81203FB8F248E238D228C211205E47F58
:10075F006D1208617F561208617F0D1208617F0AC2
:10076F0012086112083612083612083612083612AD
:04077F00083680AB0D
:100825000E1155617274205465737420210D0A00F0
:1007FA00759850758920758BFD758DFDD28E758E15
:08080A0040C200D2ACD2AF22C3
:10000300EF64AA7016C2ACFF74112FF8E6600AF50C
:0B001300993099FDC2990F80EFD2AC2C
:01001E0022BF
:030023000207D8F9
:1007D800C0E0C0D075D008309906C299C200800D1B
:1007E80030980AC298859910AF10120003D0D0D063
:0207F800E032ED
:03085E002430FF44
:080861002000FDD2008F992256
:1007B3008B308A318932AB30AA31A93212035760A8
:1007C300130532E5327002053114F9120357FF1293
:0507D300086180E22234
:0805E4008F288E278D268C253F
:1005EC00E47B0AFAF9F81203708F288E278D268C7B
:1005FC0025E47B107A27F9F81203FBAC00AD01AEB1
:10060C0002AF03E47BE87A03F9F81203FB8F29E4C9
:10061C007BE87A03F9F8AF28AE27AD26AC25120398
:10062C00FBAC00AD01AE02AF03E47B64FAF9F81247
:10063C0003FB8F2AE47B64FAF9F8AF28AE27AD26CA
:10064C00AC251203FBAC00AD01AE02AF03E47B0A98
:10065C00FAF9F81203FB8F2BE47B0AFAF9F8AF28AE
:10066C00AE27AD26AC251203FBAF038F2CE5291268
:10067C00085EE52A12085EE52B2430FF120861E5BE
:07068C002C2430FF0208617D
:02078300AE07BF
:10078500EEC4540FFDC3940AED40042437800224BF
:1007950030FF120861EE540FFEC3940AEE400424A4
:0E07A5003780022430FF1208617F20020861B5
:10081200E4FEEEC39F500B7D0D7C25DCFEDDFC0E5D
:0208220080F064
:0108240022B1
:1001C100E4FBFAC2B530B7117F0A1208120BEBD368
:1001D100949640F1D2B5D2B722E4FFD2B500000027
:1001E10000000000000000000000000000C2B50097
:1001F1000000000000000000000000000000000FEF
:10020100BF1DD8D2B50000000000000000000000B2
:1002110000D2B7C2B50000000000000000000000DD
:1002210000D2B5000000000000000000000000D274
:10023100B7C2B5000000000000000000000000D2BD
:10024100B5000000000000000000000000C2B7C2BD
:10025100B5000000000000000000000000D2B50061
:100261000000000000000000000000C2B7C2B5009D
:100271000000000000000000000000D2B5000000F6
:10028100000000000000000000D2B7C2B50000006D
:10029100000000000000000000D2B50000000000D6
:1002A10000000000000000C2B7C2B500000000005D
:1002B10000000000000000D2B500000000000000B6
:1002C1000000000000D2B7C2B5000000000000002D
:1002D1000000000000D2B500000000000000000096
:1002E10000000000000000C2B50000000000000096
:1002F100000000000000000000E4FFD2B500000093
:1003010000000000000000000000000000EA30E7EB
:1003110004D2B78002C2B7EA25E0FAC2B5000000F4
:10032100000000000000000000000000000FBF08F6
:10033100CAD2B5000000000000000000000000006B
:10034100000000C2B5000000000000000000000035
:050351000000000000A7
:010356002284
:10002600E4FBFAF533F534C2B530B7137F0A12088C
:10003600120AEAD3949640F1D2B5D2B77F0122E4F0
:10004600FFD2B50000000000000000000000000024
:10005600000000C2B5000000000000000000000023
:1000660000000000000FBF1DD8D2B5000000000040
:1000760000000000000000D2B7C2B500000000007A
:1000860000000000000000D2B500000000000000E3
:100096000000000000C2B7C2B5000000000000006A
:1000A6000000000000D2B5000000000000000000C3
:1000B600000000D2B7C2B50000000000000000003A
:1000C600000000D2B50000000000000000000000A3
:1000D60000C2B7C2B500000000000000000000002A
:1000E60000D2B5000000000000000000000000D2B1
:1000F600B7C2B5000000000000000000000000D2FA
:10010600B5000000000000000000000000D2B7C2E9
:10011600B5000000000000000000000000D2B5009D
:100126000000000000000000000000C2B7C2B500D9
:100136000000000000000000000000D2B7D2B500A9
:10014600000000000000000000000000000000C2E7
:10015600B5000000000000000000000000000000E4
:1001660000E4FBFFD2B50000000000000000000024
:10017600000000000000C2B5000000000000000002
:100186000000000000000000EB25E0FB30B7010B8B
:100196000FBF08D0D2B5000000000000000000002C
:1001A600000000000000C2B50000000000000000D2
:0A01B6000000000000000000AF038D
:0101C000221C
:1004D100E4F528F527F526F525FBD2B7C2B530B7E7
:1004E1001A7F0A1208120BEBD3942C74809481406A
:1004F100EDD2B5D2B7E4FFFEFDFC22D2B7E4F52878
:10050100F527F526F525FBD2B50000000000000017
:10051100000000000000000000AF28AE27AD26ACAF
:100521002578011204BE8F288E278D268C2530B7A1
:1005310011EF2401F528E43EF527E43DF526E43CDE
:10054100F525C2B500000000000000000000000019
:10055100000000000BBB18AFE4FBD2B500000000A7
:10056100000000000000000000000000C2B5000013
:1005710000000000000000000000000000000BBBB4
:1005810003D8D2B7AF28AE27AD26AC257810120418
:10059100AB120783AF28AE27AD26AC25780812042D
:1005A100AB120783AF28120783E4FFFEE5265480D0
:1005B100FDE4FCFBFA7980F8C312049A7017AF28A6
:1005C100AE27AD26AC2512048D8F288E278D268C63
:1005D100257F2D80027F2B120861AF28AE27AD2623
:0205E100AC2547
:0105E30022F5
:0300000002069362
:0C069300787FE4F6D8FD7581340206DAA9
:10035700BB010689828A83E0225002E722BBFE02A4
:09036700E32289828A83E49322D7
:10037000E88FF0A4CC8BF0A42CFCE98EF0A42CFC2C
:100380008AF0EDA42CFCEA8EF0A4CDA8F08BF0A4AA
:100390002DCC3825F0FDE98FF0A42CCD35F0FCEB09
:1003A0008EF0A4FEA9F0EB8FF0A4CFC5F02ECD39CE
:0F03B000FEE43CFCEAA42DCE35F0FDE43CFC223B
:1003BF0075F008758200EF2FFFEE33FECD33CDCCF5
:1003CF0033CCC58233C5829BED9AEC99E582984078
:1003DF000CF582EE9BFEED9AFDEC99FC0FD5F0D655
:1003EF00E4CEFBE4CDFAE4CCF9A88222B800C1B97F
:1003FF000059BA002DEC8BF084CFCECDFCE5F0CBBD
:10040F00F97818EF2FFFEE33FEED33FDEC33FCEBF5
:10041F0033FB10D703994004EB99FB0FD8E5E4F9B0
:10042F00FA227818EF2FFFEE33FEED33FDEC33FC9D
:10043F00C933C910D7059BE99A4007EC9BFCE99A91
:10044F00F90FD8E0E4C9FAE4CCFB2275F010EF2FD6
:10045F00FFEE33FEED33FDCC33CCC833C810D707D6
:10046F009BEC9AE899400AED9BFDEC9AFCE899F811
:0E047F000FD5F0DAE4CDFBE4CCFAE4C8F922A4
:0D048D00CFF4CFCEF4CECDF4CDCCF4CC2204
:10049A00EB9FF5F0EA9E42F0E99D42F0E89C45F0B8
:0104AA00222F
:1004AB00E8600FECC313FCED13FDEE13FEEF13FF2F
:0304BB00D8F12253
:1004BE00E8600FEFC333FFEE33FEED33FDEC33FC9C
:0304CE00D8F12240
:10069F0002071FE493A3F8E493A34003F68001F24B
:1006AF0008DFF48029E493A3F85407240CC8C3335C
:1006BF00C4540F4420C8834004F456800146F6DF2B
:1006CF00E4800B0102040810204080900825E47E8E
:1006DF00019360BCA3FF543F30E509541FFEE49320
:1006EF00A360010ECF54C025E060A840B8E493A3E7
:1006FF00FAE493A3F8E493A3C8C582C8CAC583CA12
:10070F00F0A3C8C582C8CAC583CADFE9DEE780BEC9
:0108350000C2
:00000001FF
