:0E0C590000007F0D7E2D7DD6DDFEDEFCDFFA75
:010C6700226A
:060C9F0000007F01DFFEF2
:010CA500222C
:080C96007F0F7E5ADEFEDFFC39
:010C9E002233
:0E0C6800AD07AF051DEF6005120C9680F5225A
:090C8C00007F02E4FEDEFEDFFC45
:010C9500223C
:0B0C760075BA8090FE00E4F0F5BA2291
:100B3A00120C76120C1D7590FF120393120C5912A7
:100B4A0006FC8F248E238D228C21E47FFAFEFDFC85
:100B5A00AB24AA23A922A82112089EE4FBFA7980D1
:100B6A00F81209298F248E238D228C211209FF7FE6
:100B7A006D120C847F56120C847F0D120C847F0A2E
:100B8A00120C84120C59120C59120C59120C5912CB
:040B9A000C5980ABC7
:100C48000E1155617274205465737420210D0A00C9
:100C1D00759850758920758BFD758DFDD28E758EED
:080C2D0040C200D2ACD2AF229C
:10000300EF64AA7016C2ACFF74112FF8E6600AF50C
:0B001300993099FDC2990F80EFD2AC2C
:01001E0022BF
:03002300020BFBD2
:100BFB00C0E0C0D075D008309906C299C200800DF4
:100C0B0030980AC298859910AF10120003D0D0D03B
:020C1B00E032C5
:030C81002430FF1D
:080C84002000FDD2008F99222F
:100BD6008B308A318932AB30AA31A932120885604E
:100BE600130532E5327002053114F9120885FF1239
:050BF6000C8480E222E6
:0809FF008F288E278D268C2520
:100A0700E47B0AFAF9F812089E8F288E278D268C28
:100A170025E47B107A27F9F8120929AC00AD01AE5D
:100A270002AF03E47BE87A03F9F81209298F29E476
:100A37007BE87A03F9F8AF28AE27AD26AC25120973
:100A470029AC00AD01AE02AF03E47B64FAF9F812FA
:100A570009298F2AE47B64FAF9F8AF28AE27AD2677
:100A6700AC25120929AC00AD01AE02AF03E47B0A45
:100A7700FAF9F81209298F2BE47B0AFAF9F8AF285B
:100A8700AE27AD26AC25120929AF038F2CE5291215
:100A97000C81E52A120C81E52B2430FF120C84E52A
:070AA7002C2430FF020C8437
:020B9E00AE07A0
:100BA000EEC4540FFDC3940A74809480ED40042475
:100BB0003780022430FF120C84EE540FFEC3940AD7
:100BC00074809480EE4004243780022430FF120C9D
:060BD000847F20020C846A
:100C3500E4FEEEC39F500B7D0D7C25DCFEDDFC0E36
:020C450080F03D
:010C4700228A
:10039300E4FB7A1CC2913090157F0A120C350BEBEB
:1003A300D394967480948040EDD291D29022E4FF4E
:1003B300EFC3941D748094805057D29100000000C5
:1003C300000000000000000000000000000000002A
:1003D300000000000000000000000000000000001A
:1003E30000000000C29100000000000000000000B7
:1003F30000000000000000000000000000000000FA
:1004030000000000000000000000000000000F805A
:100413009FD29100000000000000000000000000D7
:1004230000000000000000000000000000000000C9
:1004330000D290C291000000000000000000000004
:1004430000000000000000000000000000000000A9
:10045300000000D291000000000000000000000036
:100463000000000000000000000000000000000089
:10047300000000D290C291000000000000000000C4
:100483000000000000000000000000000000000069
:100493000000000000D291000000000000000000F6
:1004A3000000000000000000000000000000000049
:1004B3000000000000C290C2910000000000000094
:1004C3000000000000000000000000000000000029
:1004D30000000000000000D29100000000000000B6
:1004E3000000000000000000000000000000000009
:1004F30000000000000000C290C291000000000054
:1005030000000000000000000000000000000000E8
:10051300000000000000000000D291000000000075
:1005230000000000000000000000000000000000C8
:10053300000000000000000000D290C29100000003
:1005430000000000000000000000000000000000A8
:100553000000000000000000000000D29100000035
:100563000000000000000000000000000000000088
:100573000000000000000000000000C290C29100D3
:100583000000000000000000000000000000000068
:1005930000000000000000000000000000D29100F5
:1005A3000000000000000000000000000000000048
:1005B30000000000000000000000000000D290C214
:1005C3009100000000000000000000000000000097
:1005D300000000000000000000000000000000D246
:1005E3009100000000000000000000000000000077
:1005F30000000000000000000000000000000000F8
:10060300000000000000000000C291000000000094
:1006130000000000000000000000000000000000D7
:1006230000000000000000000000000000000000C7
:10063300000000E4FFEFC39408748094805065D2F7
:100643009100000000000000000000000000000016
:100653000000000000000000000000000000000097
:10066300000000000000000000EA30E704D29080A0
:1006730002C290EA25E0FAC29100000000000000E7
:100683000000000000000000000000000000000067
:100693000000000000000000000000000000000057
:1006A300000F8091D29100000000000000000000C4
:1006B3000000000000000000000000000000000037
:1006C3000000000000000000000000000000C291D4
:1006D3000000000000000000000000000000000017
:1006E3000000000000000000000000000000000007
:0806F3000000000000000000FF
:0106FB0022DC
:10002600E4FBFAF533F534C2913090177F0A120CCF
:10003600350AEAD394967480948040EDD291D2909A
:100046007F0122E4FFEFC3941D748094805057D241
:100056009100000000000000000000000000000009
:10006600000000000000000000000000000000008A
:10007600000000000000000000C291000000000027
:10008600000000000000000000000000000000006A
:10009600000000000000000000000000000000005A
:1000A6000000000F809FD2910000000000000000B9
:1000B600000000000000000000000000000000003A
:1000C600000000000000D290C29100000000000075
:1000D600000000000000000000000000000000001A
:1000E6000000000000000000D291000000000000A7
:1000F60000000000000000000000000000000000FA
:100106000000000000000000C290C2910000000044
:1001160000000000000000000000000000000000D9
:1001260000000000000000000000D2910000000066
:1001360000000000000000000000000000000000B9
:1001460000000000000000000000D290C2910000F4
:100156000000000000000000000000000000000099
:10016600000000000000000000000000D291000026
:100176000000000000000000000000000000000079
:10018600000000000000000000000000C290C291C4
:100196000000000000000000000000000000000059
:1001A6000000000000000000000000000000D291E6
:1001B6000000000000000000000000000000000039
:1001C6000000000000000000000000000000D290C7
:1001D600C2910000000000000000000000000000C6
:1001E6000000000000000000000000000000000009
:1001F600D291000000000000000000000000000096
:1002060000000000000000000000000000000000E8
:10021600D290C29100000000000000000000000023
:1002260000000000000000000000000000000000C8
:100236000000D29100000000000000000000000055
:1002460000000000000000000000000000000000A8
:100256000000C290C29100000000000000000000F3
:100266000000000000000000000000000000000088
:1002760000000000D290D2910000000000000000B3
:100286000000000000000000000000000000000068
:100296000000000000000000000000000000000058
:1002A600C2910000000000000000000000000000F5
:1002B6000000000000000000000000000000000038
:1002C60000000000000000000000E4FBFFEFC39404
:1002D6000874809480505FD29100000000000000F6
:1002E6000000000000000000000000000000000008
:1002F60000000000000000000000000000000000F8
:1003060000C2910000000000000000000000000094
:1003160000000000000000000000000000000000D7
:100326000000000000000000000000EB25E0FB30AC
:1003360090010B0F8097D291000000000000000092
:1003460000000000000000000000000000000000A7
:100356000000000000000000000000000000000097
:10036600C291000000000000000000000000000034
:100376000000000000000000000000000000000077
:0C03860000000000000000000000AF03B9
:010392002248
:1006FC00E4F528F527F526F525FBD290C29130902C
:10070C001A7F0A120C350BEBD3942C748094814015
:10071C00EDD291D290E4FFFEFDFC22D290E4F528BC
:10072C00F527F526F525FBEBC394187480948040CF
:10073C00030207C1D291000000000000000000007D
:10074C00000000000000000000000000000000009D
:10075C000000000000000000000000000000AF28B6
:10076C00AE27AD26AC2578011209EC8F288E278D8B
:10077C00268C25309011EF2401F528E43EF527E472
:10078C003DF526E43CF525C2910000000000000078
:10079C00000000000000000000000000000000004D
:1007AC00000000000000000000000000000000003D
:1007BC00000B020733E4FBEBC3940374809480506A
:1007CC0057D2910000000000000000000000000063
:1007DC00000000000000000000000000000000000D
:1007EC000000000000000000000000C291000000AA
:1007FC0000000000000000000000000000000000ED
:10080C0000000000000000000000000000000000DC
:10081C0000000000000B809FD290AF28AE27AD26C1
:10082C00AC2578101209D9120B9EAF28AE27AD2635
:10083C00AC2578081209D9120B9EAF28120B9EE436
:10084C00FFFEE5265480FDE4FCFBFA7980F8C31228
:10085C0009C87017AF28AE27AD26AC251209BB8F7F
:10086C00288E278D268C257F2D80027F2B120C84C1
:08087C00AF28AE27AD26AC2524
:010884002251
:03000000020AAE43
:0C0AAE00787FE4F6D8FD758134020AF56B
:10088500BB010689828A83E0225002E722BBFE0271
:09089500E32289828A83E49322A4
:10089E00E88FF0A4CC8BF0A42CFCE98EF0A42CFCF9
:1008AE008AF0EDA42CFCEA8EF0A4CDA8F08BF0A477
:1008BE002DCC3825F0FDE98FF0A42CCD35F0FCEBD6
:1008CE008EF0A4FEA9F0EB8FF0A4CFC5F02ECD399B
:0F08DE00FEE43CFCEAA42DCE35F0FDE43CFC2208
:1008ED0075F008758200EF2FFFEE33FECD33CDCCC2
:1008FD0033CCC58233C5829BED9AEC99E582984045
:10090D000CF582EE9BFEED9AFDEC99FC0FD5F0D621
:10091D00E4CEFBE4CDFAE4CCF9A88222B800C1B94B
:10092D000059BA002DEC8BF084CFCECDFCE5F0CB89
:10093D00F97818EF2FFFEE33FEED33FDEC33FCEBC2
:10094D0033FB10D703994004EB99FB0FD8E5E4F97D
:10095D00FA227818EF2FFFEE33FEED33FDEC33FC6A
:10096D00C933C910D7059BE99A4007EC9BFCE99A5E
:10097D00F90FD8E0E4C9FAE4CCFB2275F010EF2FA3
:10098D00FFEE33FEED33FDCC33CCC833C810D707A3
:10099D009BEC9AE899400AED9BFDEC9AFCE899F8DE
:0E09AD000FD5F0DAE4CDFBE4CCFAE4C8F92271
:0D09BB00CFF4CFCEF4CECDF4CDCCF4CC22D1
:1009C800EB9FF5F0EA9E42F0E99D42F0E89C45F085
:0109D80022FC
:1009D900E8600FECC313FCED13FDEE13FEEF13FFFC
:0309E900D8F12220
:1009EC00E8600FEFC333FFEE33FEED33FDEC33FC69
:0309FC00D8F1220D
:100ABA00020B3AE493A3F8E493A34003F68001F20D
:100ACA0008DFF48029E493A3F85407240CC8C3333D
:100ADA00C4540F4420C8834004F456800146F6DF0C
:100AEA00E4800B0102040810204080900C48E47E48
:100AFA00019360BCA3FF543F30E509541FFEE49301
:100B0A00A360010ECF54C025E060A840B8E493A3C7
:100B1A00FAE493A3F8E493A3C8C582C8CAC583CAF2
:100B2A00F0A3C8C582C8CAC583CADFE9DEE780BEAA
:010C5800009B
:00000001FF
